:020000040000FA
:060000000A128A110C280F
:10000800FE00030EF0000A08F1000A128A114C2FB4
:100018000A128A110F2883134330FD000730FE00AF
:10002800AB30FF00203084000A128A11E2220A1243
:100038008A110A128A11FF270A128A11FB00CC01C1
:10004800CD01CE01CF01D001D101D201D30183016D
:100058000A128A11992A83120313CA00842A623069
:10006800F6008330F700C030F8000A128A117C27A6
:100078000A128A118030F6008330F7009030F800B9
:100088000A128A117C270A128A1105308312031377
:100098004A06031D50285128982A0A128A15EF2764
:1000A8000A128A1183120313C9014908803EFA0013
:1000B800FF300A128A11C9220A128A11C330831228
:1000C8000313C700CC30C600C60B6828C70B6828C6
:1000D8000000013083120313C90710304902031CC2
:1000E800762877285928B430F6008330F700C330D3
:1000F800F8000A128A117C270A128A113330F60096
:100108008330F7009130F8000A128A117C270A120E
:100118008A1183120313C9014908D03EFA00FF303F
:100128000A128A11C9220A128A11C33083120313D0
:10013800C700CC30C600C60B9F28C70B9F280000FD
:10014800013083120313C90710304902031CAD287C
:10015800AE2890281A3083120313C8005E30C700F7
:100168006D30C600C60BB628C70BB628C80BB62814
:10017800BD280A128A15EF270A128A112030831225
:100188000313C200982A1130F6008330F70080303C
:10019800F8000A128A117C270A128A11C030FA0064
:1001A8002A300A128A11C9220A128A1183120313E9
:1001B8005108C6004607203E840083130008F60055
:1001C800840A00088403F700C130F8000A128A1173
:1001D8007C270A128A11F830F6008330F700D030F5
:1001E800F8000A128A117C270A128A110430831235
:1001F80003134A06031D0129022911290130D107D9
:100208000C305102031C09290A290B29D1010A12B1
:100218008A15EF270A128A11982A05304A06031D03
:1002280016291729982A0A128A15EF270A128A11FD
:10023800303083120313C200982A8E30F6008330C0
:10024800F7008030F8000A128A117C270A128A11F6
:10025800C030FA002A300A128A11C9220A128A11F9
:10026800831203135008C6004607383E84008313E0
:100278000008F600840A00088403F700C130F8007B
:100288000A128A117C270A128A11F830F600833084
:10029800F700D030F8000A128A117C270A128A1156
:1002A8000430831203134A06031D5B295C2966295F
:1002B8000130D00705305002031C632964290B293B
:1002C800D0010B2905304A06031D6B296C29982A91
:1002D8000A128A15EF270A128A1140308312031373
:1002E800C200982A5330F6008330F7008030F800B7
:1002F8000A128A117C270A128A11D730F600833035
:10030800F700C030F8000A128A117C270A128A11F5
:100318000E30F6008430F7009030F8000A128A1187
:100328007C270A128A110530831203134A06031D1B
:100338009E299F29AF290A128A15EF270A128A11C6
:100348000A128A1161260A128A11831203131215DE
:100358005030C200982A06304A06031DB429B52930
:10036800982ABD288619B929BA29E02912114F08F7
:10037800031DBF29C029982A0A128A15EF270A12D5
:100388008A11A830F6008330F700C230F8000A124C
:100398008A117C270A128A119B30F6008330F700F5
:1003A8009230F8000A128A117C270A128A11013049
:1003B80083120313CF00982A4F03031DE429E5296C
:1003C800ED290A128A15EF270A128A1183120313DC
:1003D800CF014330F6008330F7008030F8000A126E
:1003E8008A117C270A128A114730F6008430F700F8
:1003F800C030F8000A128A117C270A128A110A12E0
:100408008A1126250A128A11D730F6008330F700A0
:100418009030F8000A128A117C270A128A11CC300F
:10042800F6008330F700D030F8000A128A117C27D2
:100438000A128A110630831203134A06031D252A5D
:10044800262A282A12112F2A05304A06031D2D2A8A
:100458002E2A2F2A12155308031D332A342A982AC4
:100468005208031D382A392A982A12110A128A15A5
:10047800EF270A128A11603083120313C200982AE8
:100488004E08031D482A492A732A0A128A15EF279B
:100498000A128A110030F6008330F7008030F80025
:1004A8000A128A117C270A128A117130F6008330E9
:1004B800F700C030F8000A128A117C270A128A1144
:1004C8002230F6008330F7009030F8000A128A11C3
:1004D8007C270A128A11013083120313CE000530DB
:1004E8004A06031D782A792A982ACE010A128A1503
:1004F800EF270A128A11103083120313C200982AB8
:100508004208103A03193328303A0319C728103A19
:1005180003192129703A03197629103A0319B629C3
:10052800303A0319442A982A08000A128A11B1227B
:100538000A128A1101300A128A11CE270A128A1168
:1005480083120313CB004B080A128A112F200A12B8
:100558008A119E2A0A128A110C280A128A11F1227B
:100568000A128A110A128A15DF270A128A110A1238
:100578008A11F1270A128A1183160313870183123D
:10058800031387010B178B17080083120313C3008B
:10059800F2017A080A128A1116270A128A11F20140
:1005A800F20A8312031343080A128A1116270A1241
:1005B8008A1108007E088A007F0882000A128A11C0
:1005C800DE220A128A118000840A04087D060319B3
:1005D8000034FF0A0319FE0AE22A8316031388016E
:1005E800091189100A128A11FE250A128A110800B7
:10060000503472346F346734723461346D34203452
:1006100063346F346D3470346C34653474346534E1
:100620000034573461347334683469346E34673459
:100630002034503472346F346734723461346D3422
:10064000733400345034723465347334733420346A
:100650003534203466346F34723420344D3465348C
:100660006E3475340034573461347334683469340B
:100670006E34673420344D34613463346834693403
:100680006E3465340034463475346E3463347434F7
:1006900069346F346E3420342D342034773461342F
:1006A00073346834003450347234653473347334C2
:1006B00020345334773469347434633468342034E8
:1006C0003A34003450347234653473347334203423
:1006D0006B346534793420343534203474346F34D9
:1006E0000034523465346D346F34763465342034DC
:1006F00063346C346F347434683465347334003468
:1007000050346F3477346534723420344F344E347F
:1007100020345734613473346834003457346134CE
:1007200074346534723420344C3465347634653432
:100730006C343A34003450346C346534613473347E
:100740006534203463346C346F347334653400346E
:1007500044344F344F34523420343A3420344F34FC
:10076000503445344E34003450346F34773465346B
:10077000723469346E34673420344F344E3400346C
:10078000453463346F34203463346F3474347434D8
:100790006F346E34733400345334573436343A344F
:1007A00020345034413455345334453400345334B8
:1007B000573435343A342034533454344134523479
:1007C000543400344134713475346134203473341A
:1007D00074346F3472346534003453347434613497
:1007E00069346E34203477346134733468340034BF
:1007F0005334573434343A345334633472346F34AA
:100800006C346C34003442346534643420347334D2
:100810006834653465347434733400345334573475
:1008200036343A342034533454344F345034003452
:10083000443465346C3469346334613474346534FD
:1008400073340034573461347334683420346F3473
:100850006E346C3479340034523469346E34733409
:1008600065342B3444347234793400344434723473
:10087000793420346F346E346C3479340034573426
:100880006F346F346C3465346E34733400345434E4
:1008900049344D34453420343A3400344D346534D1
:1008A0006434693475346D340034573468346934D1
:1008B00074346534733400344434613469346C34D2
:1008C0007934003448346534613476347934003412
:1008D00048346934673468340034413475347434CE
:1008E0006F3400344C346F34773400344D34613419
:1008F00078340034831203138811081588140814FF
:100900006430F2000030F300FF30F2070318F30AFE
:10091000FF30F307720A031D912C730A031D912CFB
:10092000922C842C831203130618972C982C9A2C43
:100930000130252D86189D2C9E2CA02C0230252DB3
:100940000619A32CA42CA62C0330252D88150811DC
:10095000881408146430F2000030F300FF30F2070E
:100960000318F30AFF30F307720A031DBB2C730A46
:10097000031DBB2CBC2CAE2C831203130618C12CF8
:10098000C22CC42C0430252D8618C72CC82CCA2C88
:100990000530252D0619CD2CCE2CD02C0630252D3A
:1009A00088150815881008146430F2000030F30030
:1009B000FF30F2070318F30AFF30F307720A031D32
:1009C000E52C730A031DE52CE62CD82C83120313A7
:1009D0000618EB2CEC2CEE2C0730252D8618F12C6C
:1009E000F22CF42C0830252D0619F72CF82CFA2CB3
:1009F0000930252D88150815881408106430F20078
:100A00000030F300FF30F2070318F30AFF30F3075A
:100A1000720A031D0F2D730A031D0F2D102D022DB9
:100A2000831203130618152D162D182D2A30252D87
:100A300086181B2D1C2D1E2D0030252D0619212D4D
:100A4000222D242D2330252DFF300800C830FA0038
:100A50000A30F2000030F300831203135308C4007D
:100A6000C5014408F4004508F5000A128A119B25C7
:100A70000A128A117208303E0A128A11C9220A1219
:100A80008A11C930FA000A30F2000030F3008312F4
:100A900003135308C400C5014408F4004508F500D9
:100AA0000A128A11BF260A128A117208303E0A12EF
:100AB0008A11C9220A128A11CA30FA003A300A127F
:100AC0008A11C9220A128A11CB30FA000A30F200C8
:100AD0000030F300831203135208C400C501440818
:100AE000F4004508F5000A128A119B250A128A11A2
:100AF0007208303E0A128A11C9220A128A11CC30B9
:100B0000FA000A30F2000030F30083120313520897
:100B1000C400C5014408F4004508F5000A128A1112
:100B2000BF260A128A117208303E0A128A11C9229F
:100B30000A128A110800F701F31F9F2DA02DA72D7F
:100B4000F209F309F20A0319F30A0130F700F51F5D
:100B5000AA2DAB2DB22DF409F509F40A0319F50AF3
:100B60000130F706F801F901720873040319B92D71
:100B7000BA2DEF2D0130F600C62D01300310F20D15
:100B8000F30DFF3E031DBE2D0130F607F31FC92DE7
:100B9000CA2DBD2D01300310F80DF90DFF3E031DC8
:100BA000CB2D73087502031DD72D72087402031C28
:100BB000DA2DDB2DE22D7208F4027308031CF50315
:100BC000F502781401300310F30CF20CFF3E031D04
:100BD000E32D0130F602031DEE2DEF2DCA2D77080F
:100BE0000319F32DF42DF92DF809F909F80A031961
:100BF000F90A7908F3007808F2000800C330F7001A
:100C0000CD30F600F60B022EF70B022EF201333038
:100C10000A128A1116270A128A111B30F7009E3019
:100C2000F600F60B112EF70B112E0000F2013330F7
:100C30000A128A1116270A128A11A630F600F60B3C
:100C40001F2E0000F20133300A128A1116270A12F1
:100C50008A112A2E2B2E0000F20102300A128A116C
:100C600016270A128A11A630F600F60B352E000060
:100C7000F20128300A128A1116270A128A11A630A8
:100C8000F600F60B412E0000F20101300A128A1123
:100C900016270A128A110430F7003D30F600F60BD1
:100CA0004F2EF70B4F2E542EF2010C300A128A11E0
:100CB00016270A128A11A630F600F60B5D2E0000E8
:100CC0000800962ED3013230D200BE2E0130D30060
:100CD0001430D200BE2ED3012830D200BE2E0130F7
:100CE000D300D201BE2E0130D3001E30D200BE2E62
:100CF0000130D3000A30D200BE2ED3012D30D200F5
:100D0000BE2E0130D3002830D200BE2ED3013730A2
:100D1000D200BE2ED3012330D200BE2ED3011E300E
:100D2000D200BE2ED3011930D200BE2E831203137F
:100D30005108003A0319622E013A0319662E033A4C
:100D400003196B2E013A03196F2E073A0319732EFC
:100D5000013A0319782E033A03197D2E013A03193B
:100D6000812E0F3A0319862E013A03198A2E033A6F
:100D700003198E2E013A0319922E622E0800F701F4
:100D8000F51FC32EC42ECB2EF409F509F40A03195E
:100D9000F50A0130F700F31FCE2ECF2ED42EF20924
:100DA000F309F20A0319F30A720873040319D92E1E
:100DB000DA2E072F0130F600E62E01300310F20D77
:100DC000F30DFF3E031DDE2E0130F607F31FE92E63
:100DD000EA2EDD2E73087502031DF02E72087402D0
:100DE000031CF32EF42EFA2E7208F4027308031C6F
:100DF000F503F50201300310F30CF20CFF3E031D66
:100E0000FB2E0130F602031D062F072FEA2E77086E
:100E100003190B2F0C2F112FF409F509F40A0319EC
:100E2000F50A7508F3007408F2000800F50072185E
:100E30001A2F1E2F831203130915212F8312031358
:100E400009117508F03988008914A630F300F30BF6
:100E5000272F000083120313891075080F39F30040
:100E600003300310F30DFF3E031D312F0310730DEC
:100E700088008914A630F300F30B3C2F0000831286
:100E8000031389101B30F4009E30F300F30B462F40
:100E9000F40B462F00000800831203138C1C512F03
:100EA000522F752F8C100130CC070318CD0A00305B
:100EB000CD0703304D02E83003194C02031C612FAB
:100EC000622F752FCC01CD0152080319682F692FAD
:100ED0006C2F0130D202752F53080319702F712F18
:100EE000752F0130D3023B30D20071088A00700E9A
:100EF0008300FE0E7E0E0900F20178080A128A11A4
:100F000016270A128A119A2FF201F20A7708FF00B7
:100F1000760884000A128A1500200A128A110A1221
:100F20008A1116270A128A110130F6070318F70AE8
:100F30000030F707770883120313FF007608840058
:100F40000A128A1500200A128A11003A031DA92FDD
:100F5000AA2F842F08005C3484346234843418341B
:100F6000843455348434ED348334C03483343F3492
:100F70008434033484342C3484343634843422343A
:100F80008434E23483346D348434723484344E34A3
:100F9000843468348434763484341034F4000A128F
:100FA0008A117A240A128A11F5007408031DD92FB8
:100FB000DA2FDC2F7508F02F750A0319E02FE12FC7
:100FC000E82F7B080319E52FE62FE82FFB01DA2F26
:100FD000750A031DEC2FED2FEF2F0130FB00FF30C2
:100FE00008008312031391018C10FA308316031347
:100FF00092008C140630831203139200080001340F
:10100000FF1B0A2883137F1883170008840A03191B
:10101000FF0A08007F087F398A000408840A031940
:04102000FF0A820041
:101FBE00831603130608073886000808F0398800D0
:101FCE00811383120313881508158814081408004A
:101FDE00F20101300A128A1116270A128A150430EC
:101FEE00F7003D30F600F60BFA2FF70BFA2FFF2F06
:021FFE000800D9
:02400E00FB3F76
:00000001FF
